{
  "_format": "hh-sol-artifact-1",
  "contractName": "ContentStorage",
  "sourceName": "contracts/ContentStorage.sol",
  "abi": [
    {
      "anonymous": false,
      "inputs": [
        {
          "indexed": true,
          "internalType": "address",
          "name": "uploader",
          "type": "address"
        },
        {
          "indexed": false,
          "internalType": "string",
          "name": "hashValue",
          "type": "string"
        },
        {
          "indexed": true,
          "internalType": "uint256",
          "name": "timestamp",
          "type": "uint256"
        },
        {
          "indexed": false,
          "internalType": "bytes32",
          "name": "key",
          "type": "bytes32"
        }
      ],
      "name": "ContentUploaded",
      "type": "event"
    },
    {
      "inputs": [
        {
          "internalType": "bytes32",
          "name": "_key",
          "type": "bytes32"
        }
      ],
      "name": "getContentDetails",
      "outputs": [
        {
          "internalType": "address",
          "name": "",
          "type": "address"
        },
        {
          "internalType": "string",
          "name": "",
          "type": "string"
        },
        {
          "internalType": "uint256",
          "name": "",
          "type": "uint256"
        }
      ],
      "stateMutability": "view",
      "type": "function"
    },
    {
      "inputs": [
        {
          "internalType": "string",
          "name": "_hashValue",
          "type": "string"
        }
      ],
      "name": "uploadContent",
      "outputs": [],
      "stateMutability": "nonpayable",
      "type": "function"
    },
    {
      "stateMutability": "payable",
      "type": "receive"
    }
  ],
  "bytecode": "0x608060405234801561001057600080fd5b50610c94806100206000396000f3fe60806040526004361061002d5760003560e01c8063be74cf5a14610039578063d94cf5111461006257610034565b3661003457005b600080fd5b34801561004557600080fd5b50610060600480360381019061005b91906105e7565b6100a1565b005b34801561006e57600080fd5b5061008960048036038101906100849190610666565b6102b4565b6040516100989392919061076c565b60405180910390f35b60008151116100e5576040517f08c379a00000000000000000000000000000000000000000000000000000000081526004016100dc906107f6565b60405180910390fd5b6001816040516100f59190610852565b908152602001604051809103902060009054906101000a900460ff1615610151576040517f08c379a0000000000000000000000000000000000000000000000000000000008152600401610148906108b5565b60405180910390fd5b6000816040516020016101649190610852565b60405160208183030381529060405280519060200120905060405180606001604052803373ffffffffffffffffffffffffffffffffffffffff1681526020018381526020014281525060008083815260200190815260200160002060008201518160000160006101000a81548173ffffffffffffffffffffffffffffffffffffffff021916908373ffffffffffffffffffffffffffffffffffffffff160217905550602082015181600101908161021b9190610ae1565b50604082015181600201559050506001808360405161023a9190610852565b908152602001604051809103902060006101000a81548160ff021916908315150217905550423373ffffffffffffffffffffffffffffffffffffffff167f6c30c47332b4698de38bc0157a977059bb755edc70af83e211f92759356bcb0e84846040516102a8929190610bc2565b60405180910390a35050565b6000606060008073ffffffffffffffffffffffffffffffffffffffff1660008086815260200190815260200160002060000160009054906101000a900473ffffffffffffffffffffffffffffffffffffffff1673ffffffffffffffffffffffffffffffffffffffff160361035d576040517f08c379a000000000000000000000000000000000000000000000000000000000815260040161035490610c3e565b60405180910390fd5b60008060008681526020019081526020016000206040518060600160405290816000820160009054906101000a900473ffffffffffffffffffffffffffffffffffffffff1673ffffffffffffffffffffffffffffffffffffffff1673ffffffffffffffffffffffffffffffffffffffff1681526020016001820180546103e290610904565b80601f016020809104026020016040519081016040528092919081815260200182805461040e90610904565b801561045b5780601f106104305761010080835404028352916020019161045b565b820191906000526020600020905b81548152906001019060200180831161043e57829003601f168201915b505050505081526020016002820154815250509050806000015181602001518260400151935093509350509193909250565b6000604051905090565b600080fd5b600080fd5b600080fd5b600080fd5b6000601f19601f8301169050919050565b7f4e487b7100000000000000000000000000000000000000000000000000000000600052604160045260246000fd5b6104f4826104ab565b810181811067ffffffffffffffff82111715610513576105126104bc565b5b80604052505050565b600061052661048d565b905061053282826104eb565b919050565b600067ffffffffffffffff821115610552576105516104bc565b5b61055b826104ab565b9050602081019050919050565b82818337600083830152505050565b600061058a61058584610537565b61051c565b9050828152602081018484840111156105a6576105a56104a6565b5b6105b1848285610568565b509392505050565b600082601f8301126105ce576105cd6104a1565b5b81356105de848260208601610577565b91505092915050565b6000602082840312156105fd576105fc610497565b5b600082013567ffffffffffffffff81111561061b5761061a61049c565b5b610627848285016105b9565b91505092915050565b6000819050919050565b61064381610630565b811461064e57600080fd5b50565b6000813590506106608161063a565b92915050565b60006020828403121561067c5761067b610497565b5b600061068a84828501610651565b91505092915050565b600073ffffffffffffffffffffffffffffffffffffffff82169050919050565b60006106be82610693565b9050919050565b6106ce816106b3565b82525050565b600081519050919050565b600082825260208201905092915050565b60005b8381101561070e5780820151818401526020810190506106f3565b60008484015250505050565b6000610725826106d4565b61072f81856106df565b935061073f8185602086016106f0565b610748816104ab565b840191505092915050565b6000819050919050565b61076681610753565b82525050565b600060608201905061078160008301866106c5565b8181036020830152610793818561071a565b90506107a2604083018461075d565b949350505050565b7f486173682076616c75652063616e6e6f7420626520656d707479000000000000600082015250565b60006107e0601a836106df565b91506107eb826107aa565b602082019050919050565b6000602082019050818103600083015261080f816107d3565b9050919050565b600081905092915050565b600061082c826106d4565b6108368185610816565b93506108468185602086016106f0565b80840191505092915050565b600061085e8284610821565b915081905092915050565b7f4861736820616c72656164792065786973747300000000000000000000000000600082015250565b600061089f6013836106df565b91506108aa82610869565b602082019050919050565b600060208201905081810360008301526108ce81610892565b9050919050565b7f4e487b7100000000000000000000000000000000000000000000000000000000600052602260045260246000fd5b6000600282049050600182168061091c57607f821691505b60208210810361092f5761092e6108d5565b5b50919050565b60008190508160005260206000209050919050565b60006020601f8301049050919050565b600082821b905092915050565b6000600883026109977fffffffffffffffffffffffffffffffffffffffffffffffffffffffffffffffff8261095a565b6109a1868361095a565b95508019841693508086168417925050509392505050565b6000819050919050565b60006109de6109d96109d484610753565b6109b9565b610753565b9050919050565b6000819050919050565b6109f8836109c3565b610a0c610a04826109e5565b848454610967565b825550505050565b600090565b610a21610a14565b610a2c8184846109ef565b505050565b5b81811015610a5057610a45600082610a19565b600181019050610a32565b5050565b601f821115610a9557610a6681610935565b610a6f8461094a565b81016020851015610a7e578190505b610a92610a8a8561094a565b830182610a31565b50505b505050565b600082821c905092915050565b6000610ab860001984600802610a9a565b1980831691505092915050565b6000610ad18383610aa7565b9150826002028217905092915050565b610aea826106d4565b67ffffffffffffffff811115610b0357610b026104bc565b5b610b0d8254610904565b610b18828285610a54565b600060209050601f831160018114610b4b5760008415610b39578287015190505b610b438582610ac5565b865550610bab565b601f198416610b5986610935565b60005b82811015610b8157848901518255600182019150602085019450602081019050610b5c565b86831015610b9e5784890151610b9a601f891682610aa7565b8355505b6001600288020188555050505b505050505050565b610bbc81610630565b82525050565b60006040820190508181036000830152610bdc818561071a565b9050610beb6020830184610bb3565b9392505050565b7f436f6e74656e74206e6f7420666f756e64000000000000000000000000000000600082015250565b6000610c286011836106df565b9150610c3382610bf2565b602082019050919050565b60006020820190508181036000830152610c5781610c1b565b905091905056fea2646970667358221220467c9214f84dd7e13b5a41412c9b7eb6198a84df96829708cb4c514d7286dcd264736f6c63430008130033",
  "linkReferences": {},
  "deployedLinkReferences": {}
}